:020000040800F2
:1000000000500020C11D0008CD040008CF040008E6
:10001000D1040008D3040008D50400080000000043
:10002000000000000000000000000000D7040008ED
:10003000D904000800000000DB040008DD0400080B
:10004000091E0008091E0008091E0008091E0008F4
:10005000091E0008091E0008091E0008091E0008E4
:10006000091E0008091E0008091E0008091E0008D4
:10007000091E0008091E0008091E0008091E0008C4
:10008000091E0008091E0008091E0008091E0008B4
:10009000E5040008091E0008091E0008091E0008E2
:1000A000091E0008091E0008091E0008091E000894
:1000B000E7040008091E0008091E0008091E0008C0
:1000C000091E0008091E0008091E0008091E000874
:1000D000091E0008E9040008091E0008091E00089E
:1000E000091E0008091E0008091E00080000000083
:1000F0000000000000000000000000000000000000
:0C01000000000000000000005FF808F1A3
:10010C0010B5054C237833B9044B13B10448AFF345
:10011C0000800123237010BD50000020000000005F
:10012C00641E000808B5034B1BB103490348AFF329
:10013C00008008BD0000000054000020641E000870
:10014C002DE9F04188B004AD002404940594069484
:10015C000794244B9A6942F004029A619A6902F05E
:10016C0004020192019A9A6942F008029A619A6912
:10017C0002F008020292029A9A6942F001029A6114
:10018C009B6903F001030393039B4FF00108CDF827
:10019C00108003230593144E2946304601F072F962
:1001AC00124F22464FF47C41384601F075FA224634
:1001BC001E21304601F070FACDF81480069402230B
:1001CC0007934FF47C4304932946384601F05AF9BF
:1001DC001E2304932946304601F054F908B0BDE8BB
:1001EC00F08100BF0010024000080140000C0140EB
:1001FC0010B50A4C204600F08DFB0A21204600F079
:10020C00DFF928B10024054800F0A8FC204610BDF9
:10021C00204600F097FA84B2F5E700BFC00000203A
:10022C0010B572B60FE00122084B33F81410084BCE
:10023C0053F8240001F030FA0134E4B2092CF2D95D
:10024C00642000F0EFFC0024F8E700BF0800002059
:10025C001C00002000B585B000230193029303938A
:10026C00144A916941F400719161926902F400722F
:10027C000092009A1048114A026083600373037560
:10028C004FF46022C26143600123036100F0E2FB82
:10029C0060B900230193012302930523039301A961
:1002AC00054800F053FA18B905B000BDFFF7B8FFC8
:1002BC00FFF7B6FF00100240C000002000240140F0
:1002CC0008B50A480A4B03604FF4165343600023E9
:1002DC008360C36003610C2242618361C36101F0DE
:1002EC006DFB00B908BDFFF79BFF00BF7800002035
:1002FC000038014010B594B00AAC282200212046E9
:10030C0001F07DFD00230593069307930893099351
:10031C00019302930393049301220A924FF48033C6
:10032C000B930E920222119212934FF4E01313933B
:10033C00204600F0A1FCC0B90F23059302210691C1
:10034C00002307934FF480620892099305A800F0EC
:10035C00C5FE60B9022301934FF40043039301A837
:10036C0000F098FF28B914B010BDFFF759FFFFF744
:10037C0057FFFFF755FF000038B500F02FFCFFF7D3
:10038C00B9FFFFF7DDFEFFF765FFFFF799FF0025CB
:10039C0025E00122404B33F81410404B53F8240055
:1003AC0001F07AF90134E4B2092CF2D94FF49670C9
:1003BC0000F038FC00240AE00022374B33F814100C
:1003CC00364B53F8240001F067F90134E4B2092CE0
:1003DC00F2D94FF4967000F025FC0135EDB2022DE8
:1003EC002AD80024E0E71B1A2D4A13802FE02D4A4F
:1003FC00137000F011FC2C4B18603DE00022264BD2
:10040C0033F81410254B53F8240001F045F901344E
:10041C00E4B2092C0DD8234B1B78A342EED9012250
:10042C001D4B33F814101D4B53F8240001F034F914
:10043C00EDE70A2000F0F6FBFFF7DAFE1B4B188005
:10044C001B4B1B889842CED9C01A154B1880144BE5
:10045C001A88184B83FB02131344C3F38713164AF1
:10046C0013700A2B02D913460A221A70124B1B78EE
:10047C000C4A12789342BAD800F0CEFB0A4B1B6898
:10048C00C01A0E4B1B68984203D90B4B1A78054BBC
:10049C001A700024BDE700BF080000201C000020DB
:1004AC0072000020700000206C00002074000020FE
:1004BC0004000020EBA00EEA7100002000000020D8
:1004CC00FEE7FEE7FEE7FEE7FEE770477047704782
:1004DC0008B500F095FB08BD7047704708B5024899
:1004EC0001F026FB08BD00BF7800002082B00E4B47
:1004FC009A6942F001029A619A6902F00102009233
:10050C00009ADA6942F08052DA61DB6903F08053B9
:10051C000193019B054A536823F0E06343F0007399
:10052C00536002B0704700BF001002400000014051
:10053C0070B586B00023029303930493059302686D
:10054C001C4B9A4201D006B070BD03F558439A6912
:10055C0042F480429A619A6902F480420092009AB5
:10056C009A6942F004029A619B6903F004030193B7
:10057C00019B4FF40073029302230393032305930F
:10058C0002AE0D4D3146284600F07CFF4FF48063DF
:10059C0002930024039404943146284600F072FF21
:1005AC0022462146252001F02FF9252001F03CF9A7
:1005BC00C9E700BF00380140000801407047000047
:1005CC00F0B583B005460C460023019300F024FBE4
:1005DC002B689A6812F4807F23D107465A6812F46C
:1005EC00807F03D1DB6A13F4700F29D0504B1E6847
:1005FC00022000F0DBFEB6FBF0F62B6819694D4AC1
:10060C00114236D1D96802F15C42114231D11969DB
:10061C00494A114240D1DA68484B1A423ED029234C
:10062C0041E0AB6A43F02003AB62002385F8243031
:10063C00012003B0F0BD2B681B6813F0020F0FD024
:10064C002B681B6813F0020F4FD1B4F1FF3FF7D0AA
:10065C00002CF0D000F0E0FAC31BA342F0D9EAE77B
:10066C00AB6A43F00403AB62002385F8243003200B
:10067C00DFE71969304A114204D1D96802F16E42A0
:10068C0011420DD019692E4A0A405AB9DA682C4B1E
:10069C0013405BB1FC2306E0292304E0142302E0A1
:1006AC00542300E0FC2303FB06F607E05423FAE78F
:1006BC00019BB34210D3019B01330193019BB342C5
:1006CC0013D2B4F1FF3FF6D0002CF1D000F0A4FA15
:1006DC00C01BA042EFD9EBE7AB6A43F00403AB625B
:1006EC00002385F824300320A3E72B686FF0120257
:1006FC001A60AB6A43F40073AB622B689B6803F41B
:10070C006023B3F5602F01D0002092E7287B60B9FD
:10071C00AB6A23F48073AB62AB6A13F4805F88D14D
:10072C00AB6A43F00103AB6283E7002081E700BFB3
:10073C004C0000202449922492244912922449000E
:10074C00499224000368D86C7047000030B482B022
:10075C000022019290F82420012A00F08F80034699
:10076C00012280F824204A68062A2DD80468606B80
:10077C0002EB8202053A4FF01F0C0CFA02FC20EA45
:10078C000C000D6805FA02F2024362630A68092A3A
:10079C0038D91C68E06802EB42021E3A4FF0070C95
:1007AC000CFA02FC20EA0C008D6805FA02F20243F6
:1007BC00E2600A68103A012A34D90020002283F83A
:1007CC00242002B030BC70470C2A0DD80568286B69
:1007DC0002EB8202233A1F24944020EA04000C68A6
:1007EC00944020432863D1E70568E86A02EB820253
:1007FC00413A1F24944020EA04000C6894402043A2
:10080C00E862C3E71C68206902EB42024FF0070C58
:10081C000CFA02FC20EA0C008D6805FA02F2024385
:10082C002261C6E71A681648824205D09A6A42F0DD
:10083C0020029A620120C1E7906810F4000F1BD1CE
:10084C00906840F4000090600A68102A01D00020E3
:10085C00B4E70C4A12680C49A1FB0212920C02EB91
:10086C0082025200019202E0019A013A0192019A2D
:10087C00002AF9D10020A1E700209FE70220A0E781
:10088C00002401404C00002083DE1B4330B583B0B4
:10089C000023019303689A6812F0010F33D10446C8
:1008AC009A6842F001029A60184B1B68184AA2FB26
:1008BC0003239B0C019302E0019B013B0193019BE1
:1008CC00002BF9D100F0A8F9054623689B6813F0BA
:1008DC00010F16D100F0A0F9431B022BF5D92368A8
:1008EC009B6813F0010FF0D1A36A43F01003A362CD
:1008FC00E36A43F00103E362002384F8243001200F
:10090C0002E0002000E0002003B030BD4C000020CD
:10091C0083DE1B4390F82430012B68D010B50446BD
:10092C00012380F82430FFF7B1FF00285BD1A36AC4
:10093C0023F4407323F0010343F48073A362236810
:10094C002C4A934227D0A26A22F48012A2625A68DF
:10095C0012F4806F05D0A26A22F4405242F4805205
:10096C00A262A26A12F4805F2BD0E26A22F0060225
:10097C00E262002284F824206FF002021A602368DD
:10098C009A6802F46022B2F5602F1DD09A6842F486
:10099C0080129A602AE0A2F58062526812F4702FDD
:1009AC00D1D0A26A42F48012A262134A526812F4A5
:1009BC00806FD6D0A26A22F4405242F48052A262D6
:1009CC00CFE70022E262D4E70A4A934204D09A6845
:1009DC0042F4A0029A6009E0A2F58062526812F417
:1009EC00702FD3D1F3E7002384F8243010BD0220FC
:1009FC00704700BF002801400024014038B503684F
:100A0C009A6812F0010F01D1002038BD04469A6893
:100A1C0022F001029A6000F0FFF8054623689B68FB
:100A2C0013F0010F13D000F0F7F8431B022BF5D98C
:100A3C0023689B6813F0010FF0D0A36A43F01003F6
:100A4C00A362E36A43F00103E3620120DDE70020C7
:100A5C00DBE7000000287BD070B50446836A002BCE
:100A6C004DD02046FFF7CAFFA36A13F0100369D1DB
:100A7C00002867D1A26A22F4885222F0020242F0C6
:100A8C000202A2626268E1690A43217B42EA4102E6
:100A9C00A568B5F5807F02D0012D36D01D46267D88
:100AAC00012E35D02668716821F4694129437160A3
:100ABC002568AE68274931401143A960A168B1F59A
:100ACC00807F01D0012902D12369013B1B052568D8
:100ADC00E96A21F470010B43EB62236899681E4BA1
:100AEC000B409A4225D0A36A23F0120343F0100363
:100AFC00A362E36A43F00103E362012027E0C362CF
:100B0C0080F82430FFF75AFDABE74FF48075C6E749
:100B1C0031B9A169013945EA413141F40065C1E7B8
:100B2C00A16A41F02001A162E16A41F00101E16298
:100B3C00B8E70023E362A36A23F0030343F0010345
:100B4C00A36204E0A36A43F01003A362012070BD0A
:100B5C0001207047FDF7E1FFFE0E1FFF90F82430D7
:100B6C00012B13D010B50446012380F82430FFF775
:100B7C0045FF38B9A36A23F4885323F0010343F0EB
:100B8C000103A362002384F8243010BD02207047B7
:100B9C0010B504460E4B18680E4B1A784FF47A7346
:100BAC00B3FBF2F3B0FBF3F000F04CFE68B90F2C82
:100BBC0001D901200AE0002221464FF0FF3000F05D
:100BCC0023FE054B1C60002000E0012010BD00BF7F
:100BDC004C000020440000204800002008B5074AC3
:100BEC00136843F010031360032000F0FBFD0F208B
:100BFC00FFF7CEFFFFF77AFC002008BD0020024073
:100C0C00034A1168034B1B780B441360704700BFF9
:100C1C00F000002044000020014B1868704700BF12
:100C2C00F000002038B50446FFF7F6FF0546B4F196
:100C3C00FF3F02D0044B1B781C44FFF7EDFF401B19
:100C4C00A042FAD338BD00BF4400002082B0084B4C
:100C5C001B68084AA2FB03235B0A00FB03F3019306
:100C6C0000BF019B5A1E0192002BF9D102B07047B4
:100C7C004C000020D34D6210002800F0F18170B5BB
:100C8C0082B00446036813F0010F2CD0994B5B68BB
:100C9C0003F00C03042B1DD0964B5B6803F00C0384
:100CAC00082B12D06368B3F5803F41D0002B55D18F
:100CBC0003F1804303F504331A6822F480321A607E
:100CCC001A6822F480221A6037E08A4B5B6813F4AE
:100CDC00803FE7D0874B1B6813F4003F03D0636859
:100CEC00002B00F0BF81236813F0020F75D0814BED
:100CFC005B6813F00C0F5FD07E4B5B6803F00C034A
:100D0C00082B54D02369002B00F08A807A4B0122E7
:100D1C001A60FFF781FF0546764B1B6813F0020F34
:100D2C0075D1FFF779FF401B0228F5D903209EE10E
:100D3C00704A136843F480331360636843B3FFF75E
:100D4C006BFF05466B4B1B6813F4003FCBD1FFF7D1
:100D5C0063FF401B6428F5D9032088E1B3F5A02F6D
:100D6C0009D0644B1A6822F480321A601A6822F493
:100D7C0080221A60E1E703F18043A3F53C331A6843
:100D8C0042F480221A601A6842F480321A60D4E766
:100D9C00FFF742FF0546574B1B6813F4003FA2D0E8
:100DAC00FFF73AFF401B6428F5D903205FE1514B54
:100DBC005B6813F4803FA5D14E4B1B6813F0020FF8
:100DCC0003D02369012B40F04F814A4A136823F06A
:100DDC00F803616943EAC1031360236813F0080F39
:100DEC0033D0A369002B5CD0434B0122C3F8802481
:100DFC00FFF712FF05463F4B5B6A13F0020F21D140
:100E0C00FFF70AFF401B0228F5D903202FE1394ACE
:100E1C00136823F0F803616943EAC1031360DCE74C
:100E2C00354B00221A60FFF7F7FE0546314B1B6865
:100E3C0013F0020FD1D0FFF7EFFE401B0228F5D9BB
:100E4C00032014E10120FFF701FF236813F0040FC6
:100E5C0000F09680274BDB6913F0805F34D1254B73
:100E6C00DA6942F08052DA61DB6903F08053019356
:100E7C00019B0125214B1B6813F4807F26D0E3686E
:100E8C00012B3DD0002B53D103F1804303F50433E8
:100E9C001A6A22F001021A621A6A22F004021A6219
:100EAC0033E0154B0022C3F88024FFF7B5FE05464E
:100EBC00104B5B6A13F0020FC7D0FFF7ADFE401B5F
:100ECC000228F5D90320D2E00025D3E70B4A13689A
:100EDC0043F480731360FFF79FFE0646074B1B68B5
:100EEC0013F4807FCBD1FFF797FE801B6428F5D9D4
:100EFC000320BCE0001002400000424200700040A1
:100F0C005F4A136A43F001031362E36833B3FFF7DC
:100F1C0083FE06465A4B1B6A13F0020F2FD1FFF7C4
:100F2C007BFE801B41F288339842F3D903209EE06C
:100F3C00052B09D0524B1A6A22F001021A621A6A66
:100F4C0022F004021A62E0E74D4B1A6A42F00402E6
:100F5C001A621A6A42F001021A62D6E7FFF75CFEC7
:100F6C000646474B1B6A13F0020F08D0FFF754FEDE
:100F7C00801B41F288339842F3D9032077E0E5B91E
:100F8C00E369002B72D03E4A526802F00C02082A28
:100F9C0056D0022B17D03B4B00221A66FFF73CFEB3
:100FAC000446374B1B6813F0007F47D0FFF734FE25
:100FBC00001B0228F5D9032059E0314AD36923F0EC
:100FCC008053D361DCE72F4B00221A66FFF724FE17
:100FDC0005462B4B1B6813F0007F06D0FFF71CFE59
:100FEC00401B0228F5D9032041E0236AB3F5803F6A
:100FFC001AD023494B6823F47413226A606A0243A3
:10100C0013434B601F4B01221A66FFF705FE044683
:10101C001B4B1B6813F0007F0ED1FFF7FDFD001B6F
:10102C000228F5D9032022E0154A536823F4003333
:10103C00A1680B435360DCE7002018E0002016E0A9
:10104C00012B16D00E4B5B6803F48031226A91425F
:10105C0011D103F47013626A93420ED1002006E0A2
:10106C0001207047012002E0012000E0002002B0C6
:10107C0070BD0120FBE70120F9E70120F7E700BF75
:10108C0000100240000042420F4B5B6803F00C0260
:10109C00082A01D00D487047C3F383420C49885C81
:1010AC0013F4803F0BD0084B5B68C3F34043094AF1
:1010BC00D35C064A02FB00F0B0FBF3F07047064B22
:1010CC0003FB00F0704700BF0010024000127A00D2
:1010DC00801E00087C1E000800093D00002800F05E
:1010EC00A08070B50D460446524B1B6803F00703F5
:1010FC008B420BD24F4A136823F007030B43136048
:10110C00136803F007038B4240F08D80236813F0C3
:10111C00020F17D013F0040F04D0474A536843F45E
:10112C00E0635360236813F0080F04D0424A5368FD
:10113C0043F460535360404A536823F0F003A168B2
:10114C000B435360236813F0010F31D06368012BFC
:10115C0020D0022B25D0384A126812F0020F64D02E
:10116C0035494A6822F0030213434B60FFF754FDE4
:10117C000646314B5B6803F00C036268B3EB820FDD
:10118C0016D0FFF749FD801B41F288339842F0D905
:10119C00032045E0284A126812F4003FE0D10120F8
:1011AC003EE0254A126812F0007FD9D1012037E0C9
:1011BC00204B1B6803F00703AB420AD91D4A136886
:1011CC0023F007032B431360136803F00703AB42B0
:1011DC002DD1236813F0040F06D0174A536823F45B
:1011EC00E063E1680B435360236813F0080F07D0EA
:1011FC00114A536823F46053216943EAC1035360D5
:10120C00FFF742FF0C4B5B68C3F303130B4AD35C31
:10121C00D8400B4B18600B4B1868FFF7B9FC00203B
:10122C0070BD012070470120FAE70120F8E701208A
:10123C00F6E700BF0020024000100240AC1E000880
:10124C004C00002048000020014B1868704700BF7C
:10125C004C00002008B5FFF7F7FF044B5B68C3F3A5
:10126C000223034AD35CD84008BD00BF00100240E3
:10127C00A41E000808B5FFF7E7FF044B5B68C3F337
:10128C00C223034AD35CD84008BD00BF0010024003
:10129C00A41E000870B582B00446036813F0010F59
:1012AC0036D03F4BDB6913F0805F4AD13C4BDA6997
:1012BC0042F08052DA61DB6903F080530193019BA9
:1012CC000125384B1B6813F4807F3CD0344B1B6AD0
:1012DC0013F4407313D0626802F440729A420ED039
:1012EC002F4A136A23F440702F490126C1F8406439
:1012FC000026C1F84064106213F0010F37D1284A60
:10130C00136A23F4407361680B431362002D3FD1C1
:10131C00236813F0020F06D0214A536823F440438C
:10132C00A1680B435360236813F0100F35D01C4A8F
:10133C00536823F48003E1680B435360002002B030
:10134C0070BD0025BDE7174A136843F48073136022
:10135C00FFF762FC0646134B1B6813F4807FB5D174
:10136C00FFF75AFC801B6428F5D90320E7E7FFF749
:10137C0053FC06460A4B1B6A13F0020FBFD1FFF752
:10138C004BFC801B41F288339842F3D90320D6E7FB
:10139C00D36923F08053D361BAE70020CFE700BFB5
:1013AC0000100240007000400000424208B50228C4
:1013BC004ED0102803D0012828D0002052E02B4B0F
:1013CC005A68186810F080704CD0C2F383432849D7
:1013DC00C85C12F4803F15D0244B5B68C3F34043C8
:1013EC00244AD25C244BB3FBF2F303FB00F01F4BFB
:1013FC005B6813F4800F35D14000204BA3FB003009
:10140C0040082FE01E4B03FB00F0F0E7174B1B6A64
:10141C0040F202321A40B2F5817F24D003F44073BB
:10142C00B3F5007F04D0B3F5407F09D0002019E05C
:10143C000E4A526A12F0020FF5D049F6404011E004
:10144C000A4B186810F400300CD04FF2244009E01D
:10145C00FFF710FF054B5B68C3F3813301335B006F
:10146C00B0FBF3F008BD4FF40040FBE70010024066
:10147C00941E0008901E000800127A00ABAAAAAABB
:10148C0000093D0070B582B00024A4469EE07C4D5E
:10149C00AB4214D00CD8A5F58015AB420FD005F596
:1014AC007025AB420BD0A5F58015AB421FD106E0E1
:1014BC00744DAB4203D005F58035AB4217D18B6828
:1014CC00A3B1012B0DD04261082410E0CC680EE0D2
:1014DC00CC6804340BE0CC68083408E0CC680C34DD
:1014EC0005E00261082402E0002400E00424BEF1BF
:1014FC00FF0F37D806464FEA8C0233680F2595400C
:10150C0023EA050304FA02F2134333604B6813F029
:10151C00805F59D05C4B9A6942F001029A619B69D9
:10152C0003F001030193019B4FEA9C02951C574B5E
:10153C0053F825600CF00305AD000F23AB4026EAF1
:10154C000306534B984214D003F58063984279D02C
:10155C0003F58063984277D003F58063984206D0F8
:10156C00042307E0061DACF108029200C5E7032333
:10157C0000E00023AB4033430232444D45F82230A7
:10158C004B6813F4801F61D0424A936843EA0E0300
:10159C0093604B6813F4001F5ED03E4AD36843EA55
:1015AC000E03D3604B6813F4003F5BD0394A536889
:1015BC0043EA0E0353604B6813F4803F58D0354A0E
:1015CC00136843EA0E0313600CF1010C0B6833FA39
:1015DC000CF253D0012202FA0CF203EA020E32EAA8
:1015EC000303F1D14B68122B3FF651AF122B3FF690
:1015FC007EAF01A555F823F0CB140008D9140008D0
:10160C00E3140008F5140008FB140008FB14000890
:10161C00FB140008FB140008FB140008FB14000862
:10162C00FB140008FB140008FB140008FB14000852
:10163C00FB140008FB140008FB140008DD14000860
:10164C00E9140008012395E7022393E7114A9368F4
:10165C0023EA0E0393609CE70E4AD36823EA0E0339
:10166C00D3609FE70B4A536823EA0E035360A2E74B
:10167C00084A136823EA0E031360A5E702B070BD95
:10168C000000221000003110001002400000014048
:10169C0000080140000401400AB1016170470904CF
:1016AC0001617047034690F82120022A06D00422DB
:1016BC008263002280F820200120704701680A68AC
:1016CC0022F00E020A6001680A6822F001020A6028
:1016DC00026CC06B012101FA02F2426083F8211006
:1016EC00002083F82000704708B590F82130022BB9
:1016FC0003D004238363012008BD0268136823F020
:10170C000E0313600268136823F00103136003686F
:10171C00194A934214D0143293421FD0143293427C
:10172C001ED0143293421ED0143293421ED0143267
:10173C00934202D04FF0807203E04FF4801200E02D
:10174C0001220E4B5A60012380F82130002380F8CF
:10175C002030436B6BB198470020CDE71022F0E7A7
:10176C004FF48072EDE74FF48052EAE74FF4803289
:10177C00E7E70020C0E700BF08000240000002407D
:10178C00002808DB0901C9B200F1604000F5614096
:10179C0080F80013704700F00F000901C9B2014B2B
:1017AC001954704714ED00E000B500F00700C0F1CB
:1017BC00070CBCF1040F28BF4FF0040C031D062BC3
:1017CC000ED9C31E4FF0FF3E0EFA0CF021EA0001B9
:1017DC0099400EFA03FE22EA0E0241EA020000BD15
:1017EC000023EFE7074AD36823F4E0631B041B0CC8
:1017FC00000200F4E060034343F0BF6343F40033A2
:10180C00D360704700ED00E010B50446054BD86876
:10181C00C0F30220FFF7C8FF01462046FFF7B0FFD8
:10182C0010BD00BF00ED00E0002807DB00F01F0238
:10183C00400901239340024A42F82030704700BF10
:10184C0000E100E00138B0F1807F0BD24FF0E023D3
:10185C005861054AF02182F8231000209861072274
:10186C001A6170470120704700ED00E07047026874
:10187C0002F10C0353E8003F23F490730C3242E85E
:10188C0000310029F3D1026802F1140353E8003F40
:10189C0023F00103143242E800310029F3D1036B29
:1018AC00012B05D0202380F84230002303637047BE
:1018BC00026802F10C0353E8003F23F010030C32D2
:1018CC0042E800310029F3D1ECE790F84130212BAC
:1018DC0001D0022070478368B3F5805F17D0036A8C
:1018EC005A1C02621A7803685A60C38C9BB2013B83
:1018FC009BB2C3844BB90268D36823F08003D360D6
:10190C000268D36843F04003D3600020704703693A
:10191C00002BE4D1036A1B880268C3F308035360ED
:10192C00036A02330362E0E710B5044602681369E8
:10193C0023F44053C1680B4313618368026913435A
:10194C0042691A430168CB6823F4B05323F00C03AB
:10195C001343CB600268536923F4407381690B43D2
:10196C0053610268134B9A4220D0FFF773FC024676
:10197C0002EB820202EB820263689B00B2FBF3F281
:10198C000D48A0FB02314909642303FB11231B0101
:10199C003233A0FB03035B0903F0F00202EB0112EC
:1019AC0003F00F03216813448B6010BDFFF762FC3A
:1019BC000246DDE7003801401F85EB5160B310B5DE
:1019CC00044690F8413013B3242384F84130226844
:1019DC00D36823F40053D3602046FFF7A5FF226899
:1019EC00136923F4904313612268536923F02A038B
:1019FC0053612268D36843F40053D36000206064C1
:101A0C00202384F8413084F84230606310BD80F8A4
:101A1C004030FEF78DFDD7E701207047704708B5C1
:101A2C000168CA6822F04002CA60202280F8412076
:101A3C00FFF7F4FF002008BD7047704708B5406AF7
:101A4C000023C385C384FFF7F8FF08BD704790F8E7
:101A5C004230222B68D18368B3F5805F4ED0826A06
:101A6C00B3F5805F04D0002B55D10369002B52D104
:101A7C0003685B681370836A01338362C38D9BB206
:101A8C00013B9BB2C385002B50D100B583B00268DB
:101A9C00D36823F02003D3600268D36823F48073E7
:101AAC00D3600268536923F001035361202380F84B
:101ABC00423000234363036B012B32D100230363B9
:101ACC00026802F10C0353E8003F23F010030C32C0
:101ADC0042E800310029F3D103681A6812F0100FA4
:101AEC0006D0002201921A6801925B680193019B57
:101AFC00818DFFF7ABFF002003B000BD0269002A07
:101B0C00ADD1826A03685B68C3F308031380836AF0
:101B1C0002338362B2E703685B6803F07F031370E0
:101B2C00A9E7FFF789FFE6E702207047002070471E
:101B3C0010B582B0044602681368D068516913F07E
:101B4C000F0F09D113F0200F0CD010F0200F09D07B
:101B5C002046FFF77CFF16E011F0010115D110F4BF
:101B6C00907F12D1216B012979D013F0800F03D013
:101B7C0010F0800F40F0138113F0400F03D010F0E1
:101B8C00400F40F0108102B010BD13F0010F06D0D1
:101B9C0010F4807F03D0626C42F00102626413F097
:101BAC00040F04D019B1626C42F00202626413F0AB
:101BBC00020F04D019B1626C42F00402626413F09B
:101BCC00080F07D010F0200F00D119B1626C42F051
:101BDC0008026264626C002AD5D013F0200F02D088
:101BEC0010F0200F29D123685B6903F04003626C6D
:101BFC0012F0080F00D163B32046FFF738FE2368BC
:101C0C005B6913F0400F20D0226802F1140353E8F3
:101C1C00003F23F04003143242E800310029F3D195
:101C2C00E36B73B1624A5A63E06BFFF75DFD00280A
:101C3C00A9D0E06B436B9847A5E72046FFF707FF59
:101C4C00D1E72046FFF7F9FE9DE72046FFF7F5FEAA
:101C5C0099E72046FFF7F1FE0023636493E713F046
:101C6C00100F82D010F0100F3FF47FAF00230193C0
:101C7C001368019353680193019B536913F0400F50
:101C8C0051D0E26B13685B689BB2002B3FF47BAFC7
:101C9C00A18D99427FF677AFE3859369202B37D0DE
:101CAC00226802F10C0353E8003F23F480730C32DA
:101CBC0042E800310029F3D1226802F1140353E801
:101CCC00003F23F00103143242E800310029F3D124
:101CDC00226802F1140353E8003F23F0400314324E
:101CEC0042E800310029F3D1202384F8423000234C
:101CFC002363226802F10C0353E8003F23F0100326
:101D0C000C3242E800310029F3D1E06BFFF7CAFC3A
:101D1C0002236363A18DE38D9BB2C91A89B220465D
:101D2C00FFF794FE2FE7A18DE38D9BB2C91A89B200
:101D3C00E38D9BB2002B3FF426AF00293FF423AF79
:101D4C00226802F10C0353E8003F23F490730C3229
:101D5C0042E800300028F3D1226802F1140353E862
:101D6C00003F23F00103143242E800300028F3D185
:101D7C00202384F8423000232363226802F10C03F1
:101D8C0053E8003F23F010030C3242E800300028E7
:101D9C00F3D1022363632046FFF758FEF3E6204697
:101DAC00FFF793FDEFE62046FFF739FEEBE600BFA9
:101DBC00491A0008FFF75AFD0B480C490C4A00233E
:101DCC0002E0D458C4500433C4188C42F9D3094AE5
:101DDC00094C002301E013600432A242FBD300F053
:101DEC0017F8FEF7C9FA70470000002050000020D9
:101DFC00C41E000850000020F4000020FEE703463B
:101E0C000244934200D1704703F8011BF9E700002C
:101E1C0070B500260C4D0D4B5B1B9C10A64209D1D6
:101E2C00002600F019F80A4D0A4B5B1B9C10A642C9
:101E3C0005D170BD55F8043B98470136EEE755F8CF
:101E4C00043B98470136F2E7BC1E0008BC1E000894
:101E5C00BC1E0008C01E0008F8B500BFF8BC08BCCA
:101E6C009E467047F8B500BFF8BC08BC9E4670474C
:101E7C000102000002030405060708090A0B0C0DF9
:101E8C000E0F1010010200000203040506070809DA
:101E9C000A0B0C0D0E0F10100000000001020304C1
:101EAC0000000000000000000102030406070809FE
:041EBC0031010008E8
:041EC0000D01000808
:101EC400E8030000000800000004000800100020DF
:101ED400004000801000080004000200000C0140D3
:101EE400000C0140000C0140000C0140000C0140BA
:101EF400000C0140000801400008014000080140B6
:101F04000008014001000000100000000024F4005B
:0400000508001DC111
:00000001FF
